:0100000029d6
:0100010029d5
:0100020029d4
:0100030029d3
:0100040029d2
:0100050029d1
:0100060029d0
:0100070029cf
:0100080029ce
:0100090029cd
:01000a0029cc
:01000b0029cb
:01000c0029ca
:01000d0029c9
:01000e0029c8
:01000f0029c7
:0100100029c6
:0100110029c5
:0100120029c4
:0100130029c3
:0100140029c2
:0100150029c1
:0100160029c0
:0100170029bf
:0100180029be
:0100190029bd
:01001a0029bc
:01001b0029bb
:01001c0029ba
:01001d0029b9
:01001e0029b8
:01001f0029b7
:0100200029b6
:0100210029b5
:0100220029b4
:0100230029b3
:0100240029b2
:0100250029b1
:0100260029b0
:0100270029af
:0100280029ae
:0100290029ad
:01002a0029ac
:01002b0029ab
:01002c0029aa
:01002d0029a9
:01002e0029a8
:01002f0029a7
:0100300029a6
:0100310029a5
:0100320029a4
:0100330029a3
:0100340029a2
:0100350029a1
:0100360029a0
:01003700299f
:01003800299e
:01003900299d
:01003a00299c
:01003b00299b
:01003c00299a
:01003d002999
:01003e002998
:01003f002997
:010040002996
:010041002995
:010042002994
:010043002993
:010044002992
:010045002991
:010046002990
:01004700298f
:01004800298e
:01004900298d
:01004a00298c
:01004b00298b
:01004c00298a
:01004d002989
:01004e002988
:01004f002987
:010050002986
:010051002985
:010052002984
:010053002983
:010054002982
:010055002981
:010056002980
:01005700297f
:01005800297e
:01005900297d
:01005a00297c
:01005b00297b
:01005c00297a
:01005d002979
:01005e002978
:01005f002977
:010060002976
:010061002975
:010062002974
:010063002973
:010064002972
:010065002971
:010066002970
:01006700296f
:01006800296e
:01006900296d
:01006a00296c
:01006b00296b
:01006c00296a
:01006d002969
:01006e002968
:01006f002967
:010070002966
:010071002965
:010072002964
:010073002963
:010074002962
:010075002961
:010076002960
:01007700295f
:01007800295e
:01007900295d
:01007a00295c
:01007b00295b
:01007c00295a
:01007d002959
:01007e002958
:01007f002957
:010080002956
:010081002955
:010082002954
:010083002953
:010084002952
:010085002951
:010086002950
:01008700294f
:01008800294e
:01008900294d
:01008a00294c
:01008b00294b
:01008c00294a
:01008d002949
:01008e002948
:01008f002947
:010090002946
:010091002945
:010092002944
:010093002943
:010094002942
:010095002941
:010096002940
:01009700293f
:01009800293e
:01009900293d
:01009a00293c
:01009b00293b
:01009c00293a
:01009d002939
:01009e002938
:01009f002937
:0100a0002936
:0100a1002935
:0100a2002934
:0100a3002933
:0100a4002932
:0100a5002931
:0100a6002930
:0100a700292f
:0100a800292e
:0100a900292d
:0100aa00292c
:0100ab00292b
:0100ac00292a
:0100ad002929
:0100ae002928
:0100af002927
:0100b0002926
:0100b1002925
:0100b2002924
:0100b3002923
:0100b4002922
:0100b5002921
:0100b6002920
:0100b700291f
:0100b800291e
:0100b900291d
:0100ba00291c
:0100bb00291b
:0100bc00291a
:0100bd002919
:0100be002918
:0100bf002917
:0100c0002916
:0100c1002915
:0100c2002914
:0100c3002913
:0100c4002912
:0100c5002911
:0100c6002910
:0100c700290f
:0100c800290e
:0100c900290d
:0100ca00290c
:0100cb00290b
:0100cc00290a
:0100cd002909
:0100ce002908
:0100cf002907
:0100d0002906
:0100d1002905
:0100d2002904
:0100d3002903
:0100d4002902
:0100d5002901
:0100d6002900
:0100d70029ff
:0100d80029fe
:0100d90029fd
:0100da0029fc
:0100db0029fb
:0100dc0029fa
:0100dd0029f9
:0100de0029f8
:0100df0029f7
:0100e00029f6
:0100e10029f5
:0100e20029f4
:0100e30029f3
:0100e40029f2
:0100e50029f1
:0100e60029f0
:0100e70029ef
:0100e80029ee
:0100e90029ed
:0100ea0029ec
:0100eb0029eb
:0100ec0029ea
:0100ed0029e9
:0100ee0029e8
:0100ef0029e7
:0100f00029e6
:0100f10029e5
:0100f20029e4
:0100f30029e3
:0100f40029e2
:0100f50029e1
:0100f60029e0
:0100f70029df
:0100f80029de
:0100f90029dd
:0100fa0029dc
:0100fb0029db
:0100fc0029da
:0100fd0029d9
:0100fe0029d8
:0100ff0029d7
:0101000029d5
:0101010029d4
:0101020029d3
:0101030029d2
:0101040029d1
:0101050029d0
:0101060029cf
:0101070029ce
:0101080029cd
:0101090029cc
:01010a0029cb
:01010b0029ca
:01010c0029c9
:01010d0029c8
:01010e0029c7
:01010f0029c6
:0101100029c5
:0101110029c4
:0101120029c3
:0101130029c2
:0101140029c1
:0101150029c0
:0101160029bf
:0101170029be
:0101180029bd
:0101190029bc
:01011a0029bb
:01011b0029ba
:01011c0029b9
:01011d0029b8
:01011e0029b7
:01011f0029b6
:0101200029b5
:0101210029b4
:0101220029b3
:0101230029b2
:0101240029b1
:0101250029b0
:0101260029af
:0101270029ae
:0101280029ad
:0101290029ac
:01012a0029ab
:01012b0029aa
:01012c0029a9
:01012d0029a8
:01012e0029a7
:01012f0029a6
:0101300029a5
:0101310029a4
:0101320029a3
:0101330029a2
:0101340029a1
:0101350029a0
:01013600299f
:01013700299e
:01013800299d
:01013900299c
:01013a00299b
:01013b00299a
:01013c002999
:01013d002998
:01013e002997
:01013f002996
:010140002995
:010141002994
:010142002993
:010143002992
:010144002991
:010145002990
:01014600298f
:01014700298e
:01014800298d
:01014900298c
:01014a00298b
:01014b00298a
:01014c002989
:01014d002988
:01014e002987
:01014f002986
:010150002985
:010151002984
:010152002983
:010153002982
:010154002981
:010155002980
:01015600297f
:01015700297e
:01015800297d
:01015900297c
:01015a00297b
:01015b00297a
:01015c002979
:01015d002978
:01015e002977
:01015f002976
:010160002975
:010161002974
:010162002973
:010163002972
:010164002971
:010165002970
:01016600296f
:01016700296e
:01016800296d
:01016900296c
:01016a00296b
:01016b00296a
:01016c002969
:01016d002968
:01016e002967
:01016f002966
:010170002965
:010171002964
:010172002963
:010173002962
:010174002961
:010175002960
:01017600295f
:01017700295e
:01017800295d
:01017900295c
:01017a00295b
:01017b00295a
:01017c002959
:01017d002958
:01017e002957
:01017f002956
:010180002955
:010181002954
:010182002953
:010183002952
:010184002951
:010185002950
:01018600294f
:01018700294e
:01018800294d
:01018900294c
:01018a00294b
:01018b00294a
:01018c002949
:01018d002948
:01018e002947
:01018f002946
:010190002945
:010191002944
:010192002943
:010193002942
:010194002941
:010195002940
:01019600293f
:01019700293e
:01019800293d
:01019900293c
:01019a00293b
:01019b00293a
:01019c002939
:01019d002938
:01019e002937
:01019f002936
:0101a0002935
:0101a1002934
:0101a2002933
:0101a3002932
:0101a4002931
:0101a5002930
:0101a600292f
:0101a700292e
:0101a800292d
:0101a900292c
:0101aa00292b
:0101ab00292a
:0101ac002929
:0101ad002928
:0101ae002927
:0101af002926
:0101b0002925
:0101b1002924
:0101b2002923
:0101b3002922
:0101b4002921
:0101b5002920
:0101b600291f
:0101b700291e
:0101b800291d
:0101b900291c
:0101ba00291b
:0101bb00291a
:0101bc002919
:0101bd002918
:0101be002917
:0101bf002916
:0101c0002915
:0101c1002914
:0101c2002913
:0101c3002912
:0101c4002911
:0101c5002910
:0101c600290f
:0101c700290e
:0101c800290d
:0101c900290c
:0101ca00290b
:0101cb00290a
:0101cc002909
:0101cd002908
:0101ce002907
:0101cf002906
:0101d0002905
:0101d1002904
:0101d2002903
:0101d3002902
:0101d4002901
:0101d5002900
:0101d60029ff
:0101d70029fe
:0101d80029fd
:0101d90029fc
:0101da0029fb
:0101db0029fa
:0101dc0029f9
:0101dd0029f8
:0101de0029f7
:0101df0029f6
:0101e00029f5
:0101e10029f4
:0101e20029f3
:0101e30029f2
:0101e40029f1
:0101e50029f0
:0101e60029ef
:0101e70029ee
:0101e80029ed
:0101e90029ec
:0101ea0029eb
:0101eb0029ea
:0101ec0029e9
:0101ed0029e8
:0101ee0029e7
:0101ef0029e6
:0101f00029e5
:0101f10029e4
:0101f20029e3
:0101f30029e2
:0101f40029e1
:0101f50029e0
:0101f60029df
:0101f70029de
:0101f80029dd
:0101f90029dc
:0101fa0029db
:0101fb0029da
:0101fc0029d9
:0101fd0029d8
:0101fe0029d7
:0101ff0029d6
:0102000029d4
:0102010029d3
:0102020029d2
:0102030029d1
:0102040029d0
:0102050029cf
:0102060029ce
:0102070029cd
:0102080029cc
:0102090029cb
:01020a0029ca
:01020b0029c9
:01020c0029c8
:01020d0029c7
:01020e0029c6
:01020f0029c5
:0102100029c4
:0102110029c3
:0102120029c2
:0102130029c1
:0102140029c0
:0102150029bf
:0102160029be
:0102170029bd
:0102180029bc
:0102190029bb
:01021a0029ba
:01021b0029b9
:01021c0029b8
:01021d0029b7
:01021e0029b6
:01021f0029b5
:0102200029b4
:0102210029b3
:0102220029b2
:0102230029b1
:0102240029b0
:0102250029af
:0102260029ae
:0102270029ad
:0102280029ac
:0102290029ab
:01022a0029aa
:01022b0029a9
:01022c0029a8
:01022d0029a7
:01022e0029a6
:01022f0029a5
:0102300029a4
:0102310029a3
:0102320029a2
:0102330029a1
:0102340029a0
:01023500299f
:01023600299e
:01023700299d
:01023800299c
:01023900299b
:01023a00299a
:01023b002999
:01023c002998
:01023d002997
:01023e002996
:01023f002995
:010240002994
:010241002993
:010242002992
:010243002991
:010244002990
:01024500298f
:01024600298e
:01024700298d
:01024800298c
:01024900298b
:01024a00298a
:01024b002989
:01024c002988
:01024d002987
:01024e002986
:01024f002985
:010250002984
:010251002983
:010252002982
:010253002981
:010254002980
:01025500297f
:01025600297e
:01025700297d
:01025800297c
:01025900297b
:01025a00297a
:01025b002979
:01025c002978
:01025d002977
:01025e002976
:01025f002975
:010260002974
:010261002973
:010262002972
:010263002971
:010264002970
:01026500296f
:01026600296e
:01026700296d
:01026800296c
:01026900296b
:01026a00296a
:01026b002969
:01026c002968
:01026d002967
:01026e002966
:01026f002965
:010270002964
:010271002963
:010272002962
:010273002961
:010274002960
:01027500295f
:01027600295e
:01027700295d
:01027800295c
:01027900295b
:01027a00295a
:01027b002959
:01027c002958
:01027d002957
:01027e002956
:01027f002955
:010280002954
:010281002953
:010282002952
:010283002951
:010284002950
:01028500294f
:01028600294e
:01028700294d
:01028800294c
:01028900294b
:01028a00294a
:01028b002949
:01028c002948
:01028d002947
:01028e002946
:01028f002945
:010290002944
:010291002943
:010292002942
:010293002941
:010294002940
:01029500293f
:01029600293e
:01029700293d
:01029800293c
:01029900293b
:01029a00293a
:01029b002939
:01029c002938
:01029d002937
:01029e002936
:01029f002935
:0102a0002934
:0102a1002933
:0102a2002932
:0102a3002931
:0102a4002930
:0102a500292f
:0102a600292e
:0102a700292d
:0102a800292c
:0102a900292b
:0102aa00292a
:0102ab002929
:0102ac002928
:0102ad002927
:0102ae002926
:0102af002925
:0102b0002924
:0102b1002923
:0102b2002922
:0102b3002921
:0102b4002920
:0102b500291f
:0102b600291e
:0102b700291d
:0102b800291c
:0102b900291b
:0102ba00291a
:0102bb002919
:0102bc002918
:0102bd002917
:0102be002916
:0102bf002915
:0102c0002914
:0102c1002913
:0102c2002912
:0102c3002911
:0102c4002910
:0102c500290f
:0102c600290e
:0102c700290d
:0102c800290c
:0102c900290b
:0102ca00290a
:0102cb002909
:0102cc002908
:0102cd002907
:0102ce002906
:0102cf002905
:0102d0002904
:0102d1002903
:0102d2002902
:0102d3002901
:0102d4002900
:0102d50029ff
:0102d60029fe
:0102d70029fd
:0102d80029fc
:0102d90029fb
:0102da0029fa
:0102db0029f9
:0102dc0029f8
:0102dd0029f7
:0102de0029f6
:0102df0029f5
:0102e00029f4
:0102e10029f3
:0102e20029f2
:0102e30029f1
:0102e40029f0
:0102e50029ef
:0102e60029ee
:0102e70029ed
:0102e80029ec
:0102e90029eb
:0102ea0029ea
:0102eb0029e9
:0102ec0029e8
:0102ed0029e7
:0102ee0029e6
:0102ef0029e5
:0102f00029e4
:0102f10029e3
:0102f20029e2
:0102f30029e1
:0102f40029e0
:0102f50029df
:0102f60029de
:0102f70029dd
:0102f80029dc
:0102f90029db
:0102fa0029da
:0102fb0029d9
:0102fc0029d8
:0102fd0029d7
:0102fe0029d6
:0102ff0029d5
:0103000029d3
:0103010029d2
:0103020029d1
:0103030029d0
:0103040029cf
:0103050029ce
:0103060029cd
:0103070029cc
:0103080029cb
:0103090029ca
:01030a0029c9
:01030b0029c8
:01030c0029c7
:01030d0029c6
:01030e0029c5
:01030f0029c4
:0103100029c3
:0103110029c2
:0103120029c1
:0103130029c0
:0103140029bf
:0103150029be
:0103160029bd
:0103170029bc
:0103180029bb
:0103190029ba
:01031a0029b9
:01031b0029b8
:01031c0029b7
:01031d0029b6
:01031e0029b5
:01031f0029b4
:0103200029b3
:0103210029b2
:0103220029b1
:0103230029b0
:0103240029af
:0103250029ae
:0103260029ad
:0103270029ac
:0103280029ab
:0103290029aa
:01032a0029a9
:01032b0029a8
:01032c0029a7
:01032d0029a6
:01032e0029a5
:01032f0029a4
:0103300029a3
:0103310029a2
:0103320029a1
:0103330029a0
:01033400299f
:01033500299e
:01033600299d
:01033700299c
:01033800299b
:01033900299a
:01033a002999
:01033b002998
:01033c002997
:01033d002996
:01033e002995
:01033f002994
:010340002993
:010341002992
:010342002991
:010343002990
:01034400298f
:01034500298e
:01034600298d
:01034700298c
:01034800298b
:01034900298a
:01034a002989
:01034b002988
:01034c002987
:01034d002986
:01034e002985
:01034f002984
:010350002983
:010351002982
:010352002981
:010353002980
:01035400297f
:01035500297e
:01035600297d
:01035700297c
:01035800297b
:01035900297a
:01035a002979
:01035b002978
:01035c002977
:01035d002976
:01035e002975
:01035f002974
:010360002973
:010361002972
:010362002971
:010363002970
:01036400296f
:01036500296e
:01036600296d
:01036700296c
:01036800296b
:01036900296a
:01036a002969
:01036b002968
:01036c002967
:01036d002966
:01036e002965
:01036f002964
:010370002963
:010371002962
:010372002961
:010373002960
:01037400295f
:01037500295e
:01037600295d
:01037700295c
:01037800295b
:01037900295a
:01037a002959
:01037b002958
:01037c002957
:01037d002956
:01037e002955
:01037f002954
:010380002953
:010381002952
:010382002951
:010383002950
:01038400294f
:01038500294e
:01038600294d
:01038700294c
:01038800294b
:01038900294a
:01038a002949
:01038b002948
:01038c002947
:01038d002946
:01038e002945
:01038f002944
:010390002943
:010391002942
:010392002941
:010393002940
:01039400293f
:01039500293e
:01039600293d
:01039700293c
:01039800293b
:01039900293a
:01039a002939
:01039b002938
:01039c002937
:01039d002936
:01039e002935
:01039f002934
:0103a0002933
:0103a1002932
:0103a2002931
:0103a3002930
:0103a400292f
:0103a500292e
:0103a600292d
:0103a700292c
:0103a800292b
:0103a900292a
:0103aa002929
:0103ab002928
:0103ac002927
:0103ad002926
:0103ae002925
:0103af002924
:0103b0002923
:0103b1002922
:0103b2002921
:0103b3002920
:0103b400291f
:0103b500291e
:0103b600291d
:0103b700291c
:0103b800291b
:0103b900291a
:0103ba002919
:0103bb002918
:0103bc002917
:0103bd002916
:0103be002915
:0103bf002914
:0103c0002913
:0103c1002912
:0103c2002911
:0103c3002910
:0103c400290f
:0103c500290e
:0103c600290d
:0103c700290c
:0103c800290b
:0103c900290a
:0103ca002909
:0103cb002908
:0103cc002907
:0103cd002906
:0103ce002905
:0103cf002904
:0103d0002903
:0103d1002902
:0103d2002901
:0103d3002900
:0103d40029ff
:0103d50029fe
:0103d60029fd
:0103d70029fc
:0103d80029fb
:0103d90029fa
:0103da0029f9
:0103db0029f8
:0103dc0029f7
:0103dd0029f6
:0103de0029f5
:0103df0029f4
:0103e00029f3
:0103e10029f2
:0103e20029f1
:0103e30029f0
:0103e40029ef
:0103e50029ee
:0103e60029ed
:0103e70029ec
:0103e80029eb
:0103e90029ea
:0103ea0029e9
:0103eb0029e8
:0103ec0029e7
:0103ed0029e6
:0103ee0029e5
:0103ef0029e4
:0103f00029e3
:0103f10029e2
:0103f20029e1
:0103f30029e0
:0103f40029df
:0103f50029de
:0103f60029dd
:0103f70029dc
:0103f80029db
:0103f90029da
:0103fa0029d9
:0103fb0029d8
:0103fc0029d7
:0103fd0029d6
:0103fe0029d5
:0103ff0029d4
:0104000029d2
:0104010029d1
:0104020029d0
:0104030029cf
:0104040029ce
:0104050029cd
:0104060029cc
:0104070029cb
:0104080029ca
:0104090029c9
:01040a0029c8
:01040b0029c7
:01040c0029c6
:01040d0029c5
:01040e0029c4
:01040f0029c3
:0104100029c2
:0104110029c1
:0104120029c0
:0104130029bf
:0104140029be
:0104150029bd
:0104160029bc
:0104170029bb
:0104180029ba
:0104190029b9
:01041a0029b8
:01041b0029b7
:01041c0029b6
:01041d0029b5
:01041e0029b4
:01041f0029b3
:0104200029b2
:0104210029b1
:0104220029b0
:0104230029af
:0104240029ae
:0104250029ad
:0104260029ac
:0104270029ab
:0104280029aa
:0104290029a9
:01042a0029a8
:01042b0029a7
:01042c0029a6
:01042d0029a5
:01042e0029a4
:01042f0029a3
:0104300029a2
:0104310029a1
:0104320029a0
:01043300299f
:01043400299e
:01043500299d
:01043600299c
:01043700299b
:01043800299a
:010439002999
:01043a002998
:01043b002997
:01043c002996
:01043d002995
:01043e002994
:01043f002993
:010440002992
:010441002991
:010442002990
:01044300298f
:01044400298e
:01044500298d
:01044600298c
:01044700298b
:01044800298a
:010449002989
:01044a002988
:01044b002987
:01044c002986
:01044d002985
:01044e002984
:01044f002983
:010450002982
:010451002981
:010452002980
:01045300297f
:01045400297e
:01045500297d
:01045600297c
:01045700297b
:01045800297a
:010459002979
:01045a002978
:01045b002977
:01045c002976
:01045d002975
:01045e002974
:01045f002973
:010460002972
:010461002971
:010462002970
:01046300296f
:01046400296e
:01046500296d
:01046600296c
:01046700296b
:01046800296a
:010469002969
:01046a002968
:01046b002967
:01046c002966
:01046d002965
:01046e002964
:01046f002963
:010470002962
:010471002961
:010472002960
:01047300295f
:01047400295e
:01047500295d
:01047600295c
:01047700295b
:01047800295a
:010479002959
:01047a002958
:01047b002957
:01047c002956
:01047d002955
:01047e002954
:01047f002953
:010480002952
:010481002951
:010482002950
:01048300294f
:01048400294e
:01048500294d
:01048600294c
:01048700294b
:01048800294a
:010489002949
:01048a002948
:01048b002947
:01048c002946
:01048d002945
:01048e002944
:01048f002943
:010490002942
:010491002941
:010492002940
:01049300293f
:01049400293e
:01049500293d
:01049600293c
:01049700293b
:01049800293a
:010499002939
:01049a002938
:01049b002937
:01049c002936
:01049d002935
:01049e002934
:01049f002933
:0104a0002932
:0104a1002931
:0104a2002930
:0104a300292f
:0104a400292e
:0104a500292d
:0104a600292c
:0104a700292b
:0104a800292a
:0104a9002929
:0104aa002928
:0104ab002927
:0104ac002926
:0104ad002925
:0104ae002924
:0104af002923
:0104b0002922
:0104b1002921
:0104b2002920
:0104b300291f
:0104b400291e
:0104b500291d
:0104b600291c
:0104b700291b
:0104b800291a
:0104b9002919
:0104ba002918
:0104bb002917
:0104bc002916
:0104bd002915
:0104be002914
:0104bf002913
:0104c0002912
:0104c1002911
:0104c2002910
:0104c300290f
:0104c400290e
:0104c500290d
:0104c600290c
:0104c700290b
:0104c800290a
:0104c9002909
:0104ca002908
:0104cb002907
:0104cc002906
:0104cd002905
:0104ce002904
:0104cf002903
:0104d0002902
:0104d1002901
:0104d2002900
:0104d30029ff
:0104d40029fe
:0104d50029fd
:0104d60029fc
:0104d70029fb
:0104d80029fa
:0104d90029f9
:0104da0029f8
:0104db0029f7
:0104dc0029f6
:0104dd0029f5
:0104de0029f4
:0104df0029f3
:0104e00029f2
:0104e10029f1
:0104e20029f0
:0104e30029ef
:0104e40029ee
:0104e50029ed
:0104e60029ec
:0104e70029eb
:0104e80029ea
:0104e90029e9
:0104ea0029e8
:0104eb0029e7
:0104ec0029e6
:0104ed0029e5
:0104ee0029e4
:0104ef0029e3
:0104f00029e2
:0104f10029e1
:0104f20029e0
:0104f30029df
:0104f40029de
:0104f50029dd
:0104f60029dc
:0104f70029db
:0104f80029da
:0104f90029d9
:0104fa0029d8
:0104fb0029d7
:0104fc0029d6
:0104fd0029d5
:0104fe0029d4
:0104ff0029d3
:0105000005f5
:0105010005f4
:0105020005f3
:0105030005f2
:0105040005f1
:0105050005f0
:0105060005ef
:0105070005ee
:0105080005ed
:0105090005ec
:01050a0005eb
:01050b0005ea
:01050c0005e9
:01050d0005e8
:01050e0005e7
:01050f0005e6
:0105100005e5
:0105110005e4
:0105120005e3
:0105130005e2
:0105140005e1
:0105150005e0
:0105160005df
:0105170005de
:0105180005dd
:0105190005dc
:01051a0005db
:01051b0005da
:01051c0005d9
:01051d0005d8
:01051e0005d7
:01051f0005d6
:0105200005d5
:0105210005d4
:0105220005d3
:0105230005d2
:0105240005d1
:0105250005d0
:0105260005cf
:0105270005ce
:0105280005cd
:0105290005cc
:01052a0005cb
:01052b0005ca
:01052c0005c9
:01052d0005c8
:01052e0005c7
:01052f0005c6
:0105300005c5
:0105310005c4
:0105320005c3
:0105330005c2
:0105340005c1
:0105350005c0
:0105360005bf
:0105370005be
:0105380005bd
:0105390005bc
:01053a0005bb
:01053b0005ba
:01053c0005b9
:01053d0005b8
:01053e0005b7
:01053f0005b6
:0105400005b5
:0105410005b4
:0105420005b3
:0105430005b2
:0105440005b1
:0105450005b0
:0105460005af
:0105470005ae
:0105480005ad
:0105490005ac
:01054a0005ab
:01054b0005aa
:01054c0005a9
:01054d0005a8
:01054e0005a7
:01054f0005a6
:0105500005a5
:0105510005a4
:0105520005a3
:0105530005a2
:0105540005a1
:0105550005a0
:01055600059f
:01055700059e
:01055800059d
:01055900059c
:01055a00059b
:01055b00059a
:01055c000599
:01055d000598
:01055e000597
:01055f000596
:010560000595
:010561000594
:010562000593
:010563000592
:010564000591
:010565000590
:01056600058f
:01056700058e
:01056800058d
:01056900058c
:01056a00058b
:01056b00058a
:01056c000589
:01056d000588
:01056e000587
:01056f000586
:010570000585
:010571000584
:010572000583
:010573000582
:010574000581
:010575000580
:01057600057f
:01057700057e
:01057800057d
:01057900057c
:01057a00057b
:01057b00057a
:01057c000579
:01057d000578
:01057e000577
:01057f000576
:010580000575
:010581000574
:010582000573
:010583000572
:010584000571
:010585000570
:01058600056f
:01058700056e
:01058800056d
:01058900056c
:01058a00056b
:01058b00056a
:01058c000569
:01058d000568
:01058e000567
:01058f000566
:010590000565
:010591000564
:010592000563
:010593000562
:010594000561
:010595000560
:01059600055f
:01059700055e
:01059800055d
:01059900055c
:01059a00055b
:01059b00055a
:01059c000559
:01059d000558
:01059e000557
:01059f000556
:0105a0000555
:0105a1000554
:0105a2000553
:0105a3000552
:0105a4000551
:0105a5000550
:0105a600054f
:0105a700054e
:0105a800054d
:0105a900054c
:0105aa00054b
:0105ab00054a
:0105ac000549
:0105ad000548
:0105ae000547
:0105af000546
:0105b0000545
:0105b1000544
:0105b2000543
:0105b3000542
:0105b4000541
:0105b5000540
:0105b600053f
:0105b700053e
:0105b800053d
:0105b900053c
:0105ba00053b
:0105bb00053a
:0105bc000539
:0105bd000538
:0105be000537
:0105bf000536
:0105c0000535
:0105c1000534
:0105c2000533
:0105c3000532
:0105c4000531
:0105c5000530
:0105c600052f
:0105c700052e
:0105c800052d
:0105c900052c
:0105ca00052b
:0105cb00052a
:0105cc000529
:0105cd000528
:0105ce000527
:0105cf000526
:0105d0000525
:0105d1000524
:0105d2000523
:0105d3000522
:0105d4000521
:0105d5000520
:0105d600051f
:0105d700051e
:0105d800051d
:0105d900051c
:0105da00051b
:0105db00051a
:0105dc000519
:0105dd000518
:0105de000517
:0105df000516
:0105e0000515
:0105e1000514
:0105e2000513
:0105e3000512
:0105e4000511
:0105e5000510
:0105e600050f
:0105e700050e
:0105e800050d
:0105e900050c
:0105ea00050b
:0105eb00050a
:0105ec000509
:0105ed000508
:0105ee000507
:0105ef000506
:0105f0000505
:0105f1000504
:0105f2000503
:0105f3000502
:0105f4000501
:0105f5000500
:0105f60005ff
:0105f70005fe
:0105f80005fd
:0105f90005fc
:0105fa0005fb
:0105fb0005fa
:0105fc0005f9
:0105fd0005f8
:0105fe0005f7
:0105ff0005f6
:00000001FF
